{
  "contractName": "Contacts",
  "abi": [
    {
      "inputs": [
        {
          "internalType": "uint256",
          "name": "_count",
          "type": "uint256"
        }
      ],
      "name": "setCount",
      "outputs": [],
      "stateMutability": "nonpayable",
      "type": "function"
    },
    {
      "inputs": [],
      "name": "getCount",
      "outputs": [
        {
          "internalType": "uint256",
          "name": "",
          "type": "uint256"
        }
      ],
      "stateMutability": "view",
      "type": "function",
      "constant": true
    }
  ],
  "bytecode": "0x60806040526000805534801561001457600080fd5b50610150806100246000396000f3fe608060405234801561001057600080fd5b50600436106100365760003560e01c8063a87d942c1461003b578063d14e62b814610059575b600080fd5b610043610075565b60405161005091906100a1565b60405180910390f35b610073600480360381019061006e91906100ed565b61007e565b005b60008054905090565b8060008190555050565b6000819050919050565b61009b81610088565b82525050565b60006020820190506100b66000830184610092565b92915050565b600080fd5b6100ca81610088565b81146100d557600080fd5b50565b6000813590506100e7816100c1565b92915050565b600060208284031215610103576101026100bc565b5b6000610111848285016100d8565b9150509291505056fea2646970667358221220f2e312234febd80d25df06ea7f82d66e471e801ea8afebcaa32e9b880c1c572c64736f6c63430008130033",
  "immutableReferences": {},
  "source": "pragma solidity >=0.4.22 <0.9.0;\r\n\r\ncontract Contacts {\r\n  uint count = 0; // state variable\r\n\r\n  function setCount(uint _count) public{\r\n    count = _count;\r\n  }\r\n\r\n  function getCount() public view returns(uint)\r\n  {\r\n    return count;\r\n  }\r\n\r\n\r\n}",
  "sourcePath": "C:\\Users\\hp\\Desktop\\development\\TenderApplication\\truffle\\contracts\\contracts.sol",
  "compiler": {
    "name": "solc",
    "version": "0.8.19+commit.7dd6d404.Emscripten.clang"
  },
  "schemaVersion": "3.4.13",
  "updatedAt": "2023-04-01T19:34:13.677Z",
  "networkType": "ethereum",
  "devdoc": {
    "kind": "dev",
    "methods": {},
    "version": 1
  },
  "userdoc": {
    "kind": "user",
    "methods": {},
    "version": 1
  }
}