{
  "contractName": "TenderAuction",
  "abi": [
    {
      "inputs": [],
      "name": "allocateCount",
      "outputs": [
        {
          "internalType": "uint256",
          "name": "",
          "type": "uint256"
        }
      ],
      "stateMutability": "view",
      "type": "function",
      "constant": true
    },
    {
      "inputs": [
        {
          "internalType": "uint256",
          "name": "",
          "type": "uint256"
        }
      ],
      "name": "allocateList",
      "outputs": [
        {
          "internalType": "uint256",
          "name": "",
          "type": "uint256"
        }
      ],
      "stateMutability": "view",
      "type": "function",
      "constant": true
    },
    {
      "inputs": [
        {
          "internalType": "uint256",
          "name": "",
          "type": "uint256"
        }
      ],
      "name": "allocates",
      "outputs": [
        {
          "internalType": "uint256",
          "name": "TenderId",
          "type": "uint256"
        },
        {
          "internalType": "uint256",
          "name": "BidId",
          "type": "uint256"
        },
        {
          "internalType": "string",
          "name": "tenderName",
          "type": "string"
        },
        {
          "internalType": "string",
          "name": "BidderName",
          "type": "string"
        },
        {
          "internalType": "uint256",
          "name": "Quantity",
          "type": "uint256"
        },
        {
          "internalType": "address",
          "name": "TenderCreatorAddress",
          "type": "address"
        },
        {
          "internalType": "address",
          "name": "BidderAddress",
          "type": "address"
        }
      ],
      "stateMutability": "view",
      "type": "function",
      "constant": true
    },
    {
      "inputs": [],
      "name": "bidCount",
      "outputs": [
        {
          "internalType": "uint256",
          "name": "",
          "type": "uint256"
        }
      ],
      "stateMutability": "view",
      "type": "function",
      "constant": true
    },
    {
      "inputs": [],
      "name": "bidderCount",
      "outputs": [
        {
          "internalType": "uint256",
          "name": "",
          "type": "uint256"
        }
      ],
      "stateMutability": "view",
      "type": "function",
      "constant": true
    },
    {
      "inputs": [
        {
          "internalType": "address",
          "name": "",
          "type": "address"
        }
      ],
      "name": "bidders",
      "outputs": [
        {
          "internalType": "uint256",
          "name": "id",
          "type": "uint256"
        },
        {
          "internalType": "string",
          "name": "username",
          "type": "string"
        }
      ],
      "stateMutability": "view",
      "type": "function",
      "constant": true
    },
    {
      "inputs": [
        {
          "internalType": "uint256",
          "name": "",
          "type": "uint256"
        }
      ],
      "name": "bids",
      "outputs": [
        {
          "internalType": "uint256",
          "name": "id",
          "type": "uint256"
        },
        {
          "internalType": "uint256",
          "name": "tenderId",
          "type": "uint256"
        },
        {
          "internalType": "string",
          "name": "tenderTitle",
          "type": "string"
        },
        {
          "internalType": "uint256",
          "name": "bid",
          "type": "uint256"
        },
        {
          "internalType": "address",
          "name": "userHash",
          "type": "address"
        },
        {
          "internalType": "string",
          "name": "bidderName",
          "type": "string"
        },
        {
          "internalType": "uint256",
          "name": "allocateTenderId",
          "type": "uint256"
        },
        {
          "internalType": "string",
          "name": "bidlink",
          "type": "string"
        }
      ],
      "stateMutability": "view",
      "type": "function",
      "constant": true
    },
    {
      "inputs": [],
      "name": "tenderCount",
      "outputs": [
        {
          "internalType": "uint256",
          "name": "",
          "type": "uint256"
        }
      ],
      "stateMutability": "view",
      "type": "function",
      "constant": true
    },
    {
      "inputs": [
        {
          "internalType": "uint256",
          "name": "",
          "type": "uint256"
        }
      ],
      "name": "tenders",
      "outputs": [
        {
          "internalType": "uint256",
          "name": "id",
          "type": "uint256"
        },
        {
          "internalType": "string",
          "name": "itemName",
          "type": "string"
        },
        {
          "internalType": "string",
          "name": "itemDescription",
          "type": "string"
        },
        {
          "internalType": "uint256",
          "name": "quantity",
          "type": "uint256"
        },
        {
          "internalType": "address",
          "name": "userHash",
          "type": "address"
        },
        {
          "internalType": "uint256",
          "name": "allocateBidId",
          "type": "uint256"
        },
        {
          "internalType": "string",
          "name": "tenderlink",
          "type": "string"
        }
      ],
      "stateMutability": "view",
      "type": "function",
      "constant": true
    },
    {
      "inputs": [],
      "name": "uploaderCount",
      "outputs": [
        {
          "internalType": "uint256",
          "name": "",
          "type": "uint256"
        }
      ],
      "stateMutability": "view",
      "type": "function",
      "constant": true
    },
    {
      "inputs": [
        {
          "internalType": "address",
          "name": "",
          "type": "address"
        }
      ],
      "name": "uploaders",
      "outputs": [
        {
          "internalType": "uint256",
          "name": "id",
          "type": "uint256"
        },
        {
          "internalType": "string",
          "name": "username",
          "type": "string"
        }
      ],
      "stateMutability": "view",
      "type": "function",
      "constant": true
    },
    {
      "inputs": [
        {
          "internalType": "uint256",
          "name": "",
          "type": "uint256"
        }
      ],
      "name": "whoIsBidder",
      "outputs": [
        {
          "internalType": "address",
          "name": "",
          "type": "address"
        }
      ],
      "stateMutability": "view",
      "type": "function",
      "constant": true
    },
    {
      "inputs": [
        {
          "internalType": "uint256",
          "name": "",
          "type": "uint256"
        }
      ],
      "name": "whoIsUploader",
      "outputs": [
        {
          "internalType": "address",
          "name": "",
          "type": "address"
        }
      ],
      "stateMutability": "view",
      "type": "function",
      "constant": true
    },
    {
      "inputs": [
        {
          "internalType": "address",
          "name": "_address",
          "type": "address"
        }
      ],
      "name": "isUploader",
      "outputs": [
        {
          "internalType": "uint256",
          "name": "",
          "type": "uint256"
        }
      ],
      "stateMutability": "view",
      "type": "function",
      "constant": true
    },
    {
      "inputs": [
        {
          "internalType": "address",
          "name": "_address",
          "type": "address"
        }
      ],
      "name": "isBidder",
      "outputs": [
        {
          "internalType": "uint256",
          "name": "",
          "type": "uint256"
        }
      ],
      "stateMutability": "view",
      "type": "function",
      "constant": true
    },
    {
      "inputs": [
        {
          "internalType": "string",
          "name": "_username",
          "type": "string"
        }
      ],
      "name": "createUploader",
      "outputs": [],
      "stateMutability": "nonpayable",
      "type": "function"
    },
    {
      "inputs": [
        {
          "internalType": "string",
          "name": "_username",
          "type": "string"
        }
      ],
      "name": "createBidder",
      "outputs": [],
      "stateMutability": "nonpayable",
      "type": "function"
    },
    {
      "inputs": [
        {
          "internalType": "string",
          "name": "_itemName",
          "type": "string"
        },
        {
          "internalType": "string",
          "name": "_itemDescription",
          "type": "string"
        },
        {
          "internalType": "uint256",
          "name": "_quantity",
          "type": "uint256"
        },
        {
          "internalType": "string",
          "name": "_link",
          "type": "string"
        }
      ],
      "name": "createTender",
      "outputs": [],
      "stateMutability": "nonpayable",
      "type": "function"
    },
    {
      "inputs": [
        {
          "internalType": "uint256",
          "name": "_tenderId",
          "type": "uint256"
        },
        {
          "internalType": "uint256",
          "name": "_bid",
          "type": "uint256"
        },
        {
          "internalType": "string",
          "name": "_bidLink",
          "type": "string"
        }
      ],
      "name": "createBid",
      "outputs": [],
      "stateMutability": "nonpayable",
      "type": "function"
    },
    {
      "inputs": [
        {
          "internalType": "uint256",
          "name": "_tenderId",
          "type": "uint256"
        },
        {
          "internalType": "uint256",
          "name": "_bidId",
          "type": "uint256"
        }
      ],
      "name": "allocateTender",
      "outputs": [],
      "stateMutability": "nonpayable",
      "type": "function"
    }
  ],
  "bytecode": "0x608060405260008055600060015560006002556000600355600060045534801561002857600080fd5b50612467806100386000396000f3fe608060405234801561001057600080fd5b506004361061012c5760003560e01c806363968e19116100ad578063affff9b611610071578063affff9b614610389578063b40a5627146103bf578063ce6b9801146103dd578063d45fada2146103f9578063fcc8f793146104175761012c565b806363968e19146102be5780636db5426a146102ef57806370d29c111461031f578063870be2d11461033d5780639fa95863146103595761012c565b80634423c5f1116100f45780634423c5f1146101e7578063465e1def1461021e57806346b1cb5d1461025457806354f90ef9146102845780635dc1c9ab146102a25761012c565b80630f6832b61461013157806319fde1f61461014d5780631f0587761461017d5780633de178741461019b5780634345f6f1146101cb575b600080fd5b61014b60048036038101906101469190611b6e565b610448565b005b61016760048036038101906101629190611c3b565b6106f0565b6040516101749190611c77565b60405180910390f35b61018561078f565b6040516101929190611c77565b60405180910390f35b6101b560048036038101906101b09190611c92565b610795565b6040516101c29190611c77565b60405180910390f35b6101e560048036038101906101e09190611cbf565b6107b9565b005b61020160048036038101906101fc9190611c92565b610ba6565b604051610215989796959493929190611d8d565b60405180910390f35b61023860048036038101906102339190611c92565b610da6565b60405161024b9796959493929190611e20565b60405180910390f35b61026e60048036038101906102699190611c92565b610fa0565b60405161027b9190611ea4565b60405180910390f35b61028c610fd3565b6040516102999190611c77565b60405180910390f35b6102bc60048036038101906102b79190611ebf565b610fd9565b005b6102d860048036038101906102d39190611c3b565b611261565b6040516102e6929190611f08565b60405180910390f35b61030960048036038101906103049190611c3b565b61130d565b6040516103169190611c77565b60405180910390f35b6103276113ac565b6040516103349190611c77565b60405180910390f35b61035760048036038101906103529190611f38565b6113b2565b005b610373600480360381019061036e9190611c92565b6114d9565b6040516103809190611ea4565b60405180910390f35b6103a3600480360381019061039e9190611c92565b61150c565b6040516103b69796959493929190611ff3565b60405180910390f35b6103c761169e565b6040516103d49190611c77565b60405180910390f35b6103f760048036038101906103f29190611ebf565b6116a4565b005b61040161192c565b60405161040e9190611c77565b60405180910390f35b610431600480360381019061042c9190611c3b565b611932565b60405161043f929190611f08565b60405180910390f35b6001600081548092919061045b9061209f565b9190505550600060066000858152602001908152602001600020600101805461048390612116565b80601f01602080910402602001604051908101604052809291908181526020018280546104af90612116565b80156104fc5780601f106104d1576101008083540402835291602001916104fc565b820191906000526020600020905b8154815290600101906020018083116104df57829003601f168201915b5050505050905060405180610100016040528060015481526020018581526020018281526020018481526020013373ffffffffffffffffffffffffffffffffffffffff168152602001600b60003373ffffffffffffffffffffffffffffffffffffffff1673ffffffffffffffffffffffffffffffffffffffff168152602001908152602001600020600101805461059290612116565b80601f01602080910402602001604051908101604052809291908181526020018280546105be90612116565b801561060b5780601f106105e05761010080835404028352916020019161060b565b820191906000526020600020905b8154815290600101906020018083116105ee57829003601f168201915b505050505081526020016103e78152602001838152506007600060015481526020019081526020016000206000820151816000015560208201518160010155604082015181600201908161065f91906122f3565b506060820151816003015560808201518160040160006101000a81548173ffffffffffffffffffffffffffffffffffffffff021916908373ffffffffffffffffffffffffffffffffffffffff16021790555060a08201518160050190816106c691906122f3565b5060c0820151816006015560e08201518160070190816106e691906122f3565b5090505050505050565b600080600190505b6003548111610784578273ffffffffffffffffffffffffffffffffffffffff166009600083815260200190815260200160002060009054906101000a900473ffffffffffffffffffffffffffffffffffffffff1673ffffffffffffffffffffffffffffffffffffffff160361077157600191505061078a565b808061077c9061209f565b9150506106f8565b50600090505b919050565b60005481565b600581815481106107a557600080fd5b906000526020600020016000915090505481565b600460008154809291906107cc9061209f565b919050555060006006600084815260200190815260200160002060040160009054906101000a900473ffffffffffffffffffffffffffffffffffffffff16905060006007600084815260200190815260200160002060040160009054906101000a900473ffffffffffffffffffffffffffffffffffffffff1690506040518060e0016040528085815260200184815260200160066000878152602001908152602001600020600101805461087f90612116565b80601f01602080910402602001604051908101604052809291908181526020018280546108ab90612116565b80156108f85780601f106108cd576101008083540402835291602001916108f8565b820191906000526020600020905b8154815290600101906020018083116108db57829003601f168201915b5050505050815260200160076000868152602001908152602001600020600501805461092390612116565b80601f016020809104026020016040519081016040528092919081815260200182805461094f90612116565b801561099c5780601f106109715761010080835404028352916020019161099c565b820191906000526020600020905b81548152906001019060200180831161097f57829003601f168201915b50505050508152602001600760008681526020019081526020016000206003015481526020018373ffffffffffffffffffffffffffffffffffffffff1681526020018273ffffffffffffffffffffffffffffffffffffffff16815250600c6000600454815260200190815260200160002060008201518160000155602082015181600101556040820151816002019081610a3691906122f3565b506060820151816003019081610a4c91906122f3565b506080820151816004015560a08201518160050160006101000a81548173ffffffffffffffffffffffffffffffffffffffff021916908373ffffffffffffffffffffffffffffffffffffffff16021790555060c08201518160060160006101000a81548173ffffffffffffffffffffffffffffffffffffffff021916908373ffffffffffffffffffffffffffffffffffffffff1602179055509050508260066000868152602001908152602001600020600501819055508360076000858152602001908152602001600020600601819055506000600190505b6001548111610b9f57846007600083815260200190815260200160002060010154148015610b6a57506103e76007600083815260200190815260200160002060060154145b15610b8c57600060076000838152602001908152602001600020600601819055505b8080610b979061209f565b915050610b25565b5050505050565b6007602052806000526040600020600091509050806000015490806001015490806002018054610bd590612116565b80601f0160208091040260200160405190810160405280929190818152602001828054610c0190612116565b8015610c4e5780601f10610c2357610100808354040283529160200191610c4e565b820191906000526020600020905b815481529060010190602001808311610c3157829003601f168201915b5050505050908060030154908060040160009054906101000a900473ffffffffffffffffffffffffffffffffffffffff1690806005018054610c8f90612116565b80601f0160208091040260200160405190810160405280929190818152602001828054610cbb90612116565b8015610d085780601f10610cdd57610100808354040283529160200191610d08565b820191906000526020600020905b815481529060010190602001808311610ceb57829003601f168201915b505050505090806006015490806007018054610d2390612116565b80601f0160208091040260200160405190810160405280929190818152602001828054610d4f90612116565b8015610d9c5780601f10610d7157610100808354040283529160200191610d9c565b820191906000526020600020905b815481529060010190602001808311610d7f57829003601f168201915b5050505050905088565b6006602052806000526040600020600091509050806000015490806001018054610dcf90612116565b80601f0160208091040260200160405190810160405280929190818152602001828054610dfb90612116565b8015610e485780601f10610e1d57610100808354040283529160200191610e48565b820191906000526020600020905b815481529060010190602001808311610e2b57829003601f168201915b505050505090806002018054610e5d90612116565b80601f0160208091040260200160405190810160405280929190818152602001828054610e8990612116565b8015610ed65780601f10610eab57610100808354040283529160200191610ed6565b820191906000526020600020905b815481529060010190602001808311610eb957829003601f168201915b5050505050908060030154908060040160009054906101000a900473ffffffffffffffffffffffffffffffffffffffff1690806005015490806006018054610f1d90612116565b80601f0160208091040260200160405190810160405280929190818152602001828054610f4990612116565b8015610f965780601f10610f6b57610100808354040283529160200191610f96565b820191906000526020600020905b815481529060010190602001808311610f7957829003601f168201915b5050505050905087565b60096020528060005260406000206000915054906101000a900473ffffffffffffffffffffffffffffffffffffffff1681565b60045481565b336000600190505b60025481116110a8578173ffffffffffffffffffffffffffffffffffffffff166008600083815260200190815260200160002060009054906101000a900473ffffffffffffffffffffffffffffffffffffffff1673ffffffffffffffffffffffffffffffffffffffff1603611095576002600114611094576040517f08c379a000000000000000000000000000000000000000000000000000000000815260040161108b90612411565b60405180910390fd5b5b80806110a09061209f565b915050610fe1565b506000600190505b6003548111611177578173ffffffffffffffffffffffffffffffffffffffff166009600083815260200190815260200160002060009054906101000a900473ffffffffffffffffffffffffffffffffffffffff1673ffffffffffffffffffffffffffffffffffffffff1603611164576002600114611163576040517f08c379a000000000000000000000000000000000000000000000000000000000815260040161115a90612411565b60405180910390fd5b5b808061116f9061209f565b9150506110b0565b506002600081548092919061118b9061209f565b91905055503360086000600254815260200190815260200160002060006101000a81548173ffffffffffffffffffffffffffffffffffffffff021916908373ffffffffffffffffffffffffffffffffffffffff1602179055506040518060400160405280600254815260200183815250600a60003373ffffffffffffffffffffffffffffffffffffffff1673ffffffffffffffffffffffffffffffffffffffff16815260200190815260200160002060008201518160000155602082015181600101908161125991906122f3565b509050505050565b600a60205280600052604060002060009150905080600001549080600101805461128a90612116565b80601f01602080910402602001604051908101604052809291908181526020018280546112b690612116565b80156113035780601f106112d857610100808354040283529160200191611303565b820191906000526020600020905b8154815290600101906020018083116112e657829003601f168201915b5050505050905082565b600080600190505b60025481116113a1578273ffffffffffffffffffffffffffffffffffffffff166008600083815260200190815260200160002060009054906101000a900473ffffffffffffffffffffffffffffffffffffffff1673ffffffffffffffffffffffffffffffffffffffff160361138e5760019150506113a7565b80806113999061209f565b915050611315565b50600090505b919050565b60035481565b6000808154809291906113c49061209f565b91905055506040518060e0016040528060005481526020018581526020018481526020018381526020013373ffffffffffffffffffffffffffffffffffffffff1681526020016000815260200182815250600660008054815260200190815260200160002060008201518160000155602082015181600101908161144891906122f3565b50604082015181600201908161145e91906122f3565b506060820151816003015560808201518160040160006101000a81548173ffffffffffffffffffffffffffffffffffffffff021916908373ffffffffffffffffffffffffffffffffffffffff16021790555060a0820151816005015560c08201518160060190816114cf91906122f3565b5090505050505050565b60086020528060005260406000206000915054906101000a900473ffffffffffffffffffffffffffffffffffffffff1681565b600c60205280600052604060002060009150905080600001549080600101549080600201805461153b90612116565b80601f016020809104026020016040519081016040528092919081815260200182805461156790612116565b80156115b45780601f10611589576101008083540402835291602001916115b4565b820191906000526020600020905b81548152906001019060200180831161159757829003601f168201915b5050505050908060030180546115c990612116565b80601f01602080910402602001604051908101604052809291908181526020018280546115f590612116565b80156116425780601f1061161757610100808354040283529160200191611642565b820191906000526020600020905b81548152906001019060200180831161162557829003601f168201915b5050505050908060040154908060050160009054906101000a900473ffffffffffffffffffffffffffffffffffffffff16908060060160009054906101000a900473ffffffffffffffffffffffffffffffffffffffff16905087565b60015481565b336000600190505b6002548111611773578173ffffffffffffffffffffffffffffffffffffffff166008600083815260200190815260200160002060009054906101000a900473ffffffffffffffffffffffffffffffffffffffff1673ffffffffffffffffffffffffffffffffffffffff160361176057600260011461175f576040517f08c379a000000000000000000000000000000000000000000000000000000000815260040161175690612411565b60405180910390fd5b5b808061176b9061209f565b9150506116ac565b506000600190505b6003548111611842578173ffffffffffffffffffffffffffffffffffffffff166009600083815260200190815260200160002060009054906101000a900473ffffffffffffffffffffffffffffffffffffffff1673ffffffffffffffffffffffffffffffffffffffff160361182f57600260011461182e576040517f08c379a000000000000000000000000000000000000000000000000000000000815260040161182590612411565b60405180910390fd5b5b808061183a9061209f565b91505061177b565b50600360008154809291906118569061209f565b91905055503360096000600354815260200190815260200160002060006101000a81548173ffffffffffffffffffffffffffffffffffffffff021916908373ffffffffffffffffffffffffffffffffffffffff1602179055506040518060400160405280600354815260200183815250600b60003373ffffffffffffffffffffffffffffffffffffffff1673ffffffffffffffffffffffffffffffffffffffff16815260200190815260200160002060008201518160000155602082015181600101908161192491906122f3565b509050505050565b60025481565b600b60205280600052604060002060009150905080600001549080600101805461195b90612116565b80601f016020809104026020016040519081016040528092919081815260200182805461198790612116565b80156119d45780601f106119a9576101008083540402835291602001916119d4565b820191906000526020600020905b8154815290600101906020018083116119b757829003601f168201915b5050505050905082565b6000604051905090565b600080fd5b600080fd5b6000819050919050565b611a05816119f2565b8114611a1057600080fd5b50565b600081359050611a22816119fc565b92915050565b600080fd5b600080fd5b6000601f19601f8301169050919050565b7f4e487b7100000000000000000000000000000000000000000000000000000000600052604160045260246000fd5b611a7b82611a32565b810181811067ffffffffffffffff82111715611a9a57611a99611a43565b5b80604052505050565b6000611aad6119de565b9050611ab98282611a72565b919050565b600067ffffffffffffffff821115611ad957611ad8611a43565b5b611ae282611a32565b9050602081019050919050565b82818337600083830152505050565b6000611b11611b0c84611abe565b611aa3565b905082815260208101848484011115611b2d57611b2c611a2d565b5b611b38848285611aef565b509392505050565b600082601f830112611b5557611b54611a28565b5b8135611b65848260208601611afe565b91505092915050565b600080600060608486031215611b8757611b866119e8565b5b6000611b9586828701611a13565b9350506020611ba686828701611a13565b925050604084013567ffffffffffffffff811115611bc757611bc66119ed565b5b611bd386828701611b40565b9150509250925092565b600073ffffffffffffffffffffffffffffffffffffffff82169050919050565b6000611c0882611bdd565b9050919050565b611c1881611bfd565b8114611c2357600080fd5b50565b600081359050611c3581611c0f565b92915050565b600060208284031215611c5157611c506119e8565b5b6000611c5f84828501611c26565b91505092915050565b611c71816119f2565b82525050565b6000602082019050611c8c6000830184611c68565b92915050565b600060208284031215611ca857611ca76119e8565b5b6000611cb684828501611a13565b91505092915050565b60008060408385031215611cd657611cd56119e8565b5b6000611ce485828601611a13565b9250506020611cf585828601611a13565b9150509250929050565b600081519050919050565b600082825260208201905092915050565b60005b83811015611d39578082015181840152602081019050611d1e565b60008484015250505050565b6000611d5082611cff565b611d5a8185611d0a565b9350611d6a818560208601611d1b565b611d7381611a32565b840191505092915050565b611d8781611bfd565b82525050565b600061010082019050611da3600083018b611c68565b611db0602083018a611c68565b8181036040830152611dc28189611d45565b9050611dd16060830188611c68565b611dde6080830187611d7e565b81810360a0830152611df08186611d45565b9050611dff60c0830185611c68565b81810360e0830152611e118184611d45565b90509998505050505050505050565b600060e082019050611e35600083018a611c68565b8181036020830152611e478189611d45565b90508181036040830152611e5b8188611d45565b9050611e6a6060830187611c68565b611e776080830186611d7e565b611e8460a0830185611c68565b81810360c0830152611e968184611d45565b905098975050505050505050565b6000602082019050611eb96000830184611d7e565b92915050565b600060208284031215611ed557611ed46119e8565b5b600082013567ffffffffffffffff811115611ef357611ef26119ed565b5b611eff84828501611b40565b91505092915050565b6000604082019050611f1d6000830185611c68565b8181036020830152611f2f8184611d45565b90509392505050565b60008060008060808587031215611f5257611f516119e8565b5b600085013567ffffffffffffffff811115611f7057611f6f6119ed565b5b611f7c87828801611b40565b945050602085013567ffffffffffffffff811115611f9d57611f9c6119ed565b5b611fa987828801611b40565b9350506040611fba87828801611a13565b925050606085013567ffffffffffffffff811115611fdb57611fda6119ed565b5b611fe787828801611b40565b91505092959194509250565b600060e082019050612008600083018a611c68565b6120156020830189611c68565b81810360408301526120278188611d45565b9050818103606083015261203b8187611d45565b905061204a6080830186611c68565b61205760a0830185611d7e565b61206460c0830184611d7e565b98975050505050505050565b7f4e487b7100000000000000000000000000000000000000000000000000000000600052601160045260246000fd5b60006120aa826119f2565b91507fffffffffffffffffffffffffffffffffffffffffffffffffffffffffffffffff82036120dc576120db612070565b5b600182019050919050565b7f4e487b7100000000000000000000000000000000000000000000000000000000600052602260045260246000fd5b6000600282049050600182168061212e57607f821691505b602082108103612141576121406120e7565b5b50919050565b60008190508160005260206000209050919050565b60006020601f8301049050919050565b600082821b905092915050565b6000600883026121a97fffffffffffffffffffffffffffffffffffffffffffffffffffffffffffffffff8261216c565b6121b3868361216c565b95508019841693508086168417925050509392505050565b6000819050919050565b60006121f06121eb6121e6846119f2565b6121cb565b6119f2565b9050919050565b6000819050919050565b61220a836121d5565b61221e612216826121f7565b848454612179565b825550505050565b600090565b612233612226565b61223e818484612201565b505050565b5b818110156122625761225760008261222b565b600181019050612244565b5050565b601f8211156122a75761227881612147565b6122818461215c565b81016020851015612290578190505b6122a461229c8561215c565b830182612243565b50505b505050565b600082821c905092915050565b60006122ca600019846008026122ac565b1980831691505092915050565b60006122e383836122b9565b9150826002028217905092915050565b6122fc82611cff565b67ffffffffffffffff81111561231557612314611a43565b5b61231f8254612116565b61232a828285612266565b600060209050601f83116001811461235d576000841561234b578287015190505b61235585826122d7565b8655506123bd565b601f19841661236b86612147565b60005b828110156123935784890151825560018201915060208501945060208101905061236e565b868310156123b057848901516123ac601f8916826122b9565b8355505b6001600288020188555050505b505050505050565b7f4164647265737320616c72656164792070726573656e74000000000000000000600082015250565b60006123fb601783611d0a565b9150612406826123c5565b602082019050919050565b6000602082019050818103600083015261242a816123ee565b905091905056fea264697066735822122035af0fe5364b4cdaac0c364d22cb14bb12671b03cdcd1f9173f91a66d26b5bae64736f6c63430008130033",
  "immutableReferences": {},
  "source": "// SPDX-License-Identifier: MIT\r\npragma solidity >=0.4.22 <0.9.0;\r\n\r\ncontract TenderAuction {\r\n    uint public tenderCount = 0;\r\n    uint public bidCount = 0;\r\n    uint public uploaderCount = 0;\r\n    uint public bidderCount = 0;\r\n    uint public allocateCount = 0;\r\n    uint[] public allocateList;\r\n\r\n    struct Uploader {\r\n        uint id;\r\n        string username;\r\n    }\r\n\r\n    struct Bidder {\r\n        uint id;\r\n        string username;\r\n    }\r\n\r\n    struct Bid {\r\n        uint id;\r\n        uint tenderId;\r\n        string tenderTitle;\r\n        uint bid;\r\n        address userHash;\r\n        string bidderName;\r\n        uint allocateTenderId;\r\n        string bidlink;\r\n    }\r\n\r\n    struct Tender {\r\n        uint id;\r\n        string itemName;\r\n        string itemDescription;\r\n        uint quantity;\r\n        address userHash;\r\n        uint allocateBidId;\r\n        string tenderlink;\r\n    }\r\n\r\n    struct Allocate {\r\n        uint TenderId;\r\n        uint BidId;\r\n        string tenderName;\r\n        string BidderName;\r\n        uint Quantity;\r\n        address TenderCreatorAddress;\r\n        address BidderAddress;\r\n    }\r\n\r\n    mapping (uint => Tender) public tenders;\r\n    mapping (uint => Bid) public bids;\r\n    mapping (uint => address) public whoIsUploader;\r\n    mapping (uint => address) public whoIsBidder;\r\n    mapping (address => Uploader) public uploaders;\r\n    mapping (address => Bidder) public bidders;\r\n    mapping (uint => Allocate) public allocates;\r\n\r\n    // modifier isUploader(address _userHash) {\r\n    //     require(uploaders[_userHash]);\r\n    //     _;\r\n    // }\r\n\r\n    // modifier isBidder(address _userHash) {\r\n    //     require(bidders[_userHash]);\r\n    //     _;\r\n    // }\r\n\r\n    modifier alreadyPresent(address _address) {\r\n        for(uint i = 1; i <= uploaderCount; i++) {\r\n            if(whoIsUploader[i] == _address) {\r\n                require(1 == 2, \"Address already present\");\r\n            }\r\n        }\r\n\r\n        for(uint i = 1; i <= bidderCount; i++) {\r\n            if(whoIsBidder[i] == _address) {\r\n                require(1 == 2, \"Address already present\");\r\n            }\r\n        }\r\n        _;\r\n    }\r\n\r\n    function isUploader(address _address) public view returns(uint) {\r\n        for(uint i = 1; i <= uploaderCount; i++) {\r\n            if(whoIsUploader[i] == _address) {\r\n                return 1;\r\n            }\r\n        }\r\n        return 0;\r\n    }\r\n\r\n    function isBidder(address _address) public view returns(uint) {\r\n         for(uint i = 1; i <= bidderCount; i++) {\r\n            if(whoIsBidder[i] == _address) {\r\n                return 1;\r\n            }\r\n        }\r\n        return 0;\r\n    }\r\n\r\n    function createUploader(string memory _username) public alreadyPresent(msg.sender) {\r\n        uploaderCount++;\r\n        whoIsUploader[uploaderCount] = msg.sender;\r\n        uploaders[msg.sender] = Uploader(uploaderCount, _username);\r\n    }\r\n\r\n    function createBidder(string memory _username) public alreadyPresent(msg.sender) {\r\n        bidderCount++;\r\n        whoIsBidder[bidderCount] = msg.sender;\r\n        bidders[msg.sender] = Bidder(bidderCount, _username);\r\n    }\r\n\r\n    function createTender(string memory _itemName, string memory _itemDescription, uint _quantity,string memory _link) public {\r\n        tenderCount++;\r\n        tenders[tenderCount] = Tender(tenderCount, _itemName, _itemDescription, _quantity, msg.sender,0,_link);\r\n    }\r\n\r\n    function createBid(uint _tenderId, uint _bid,string memory _bidLink) public {\r\n        bidCount++;\r\n        string memory tenderName = tenders[_tenderId].itemName;\r\n        bids[bidCount] = Bid(bidCount, _tenderId, tenderName, _bid, msg.sender,bidders[msg.sender].username,999,_bidLink);\r\n    }\r\n\r\n    function allocateTender(uint _tenderId,uint _bidId) public {\r\n        allocateCount++;\r\n        // require(allocates[_tenderId].TenderId == 0  , \"Tender Already Allocated\");\r\n        // require(_tenderId <= tenderCount  , \"Tender Not Initialized\");\r\n         address tenderCreatorAddress = tenders[_tenderId].userHash;\r\n         address BidderAddress = bids[_bidId].userHash;\r\n\r\n        allocates[allocateCount] = Allocate(_tenderId,_bidId,tenders[_tenderId].itemName,bids[_bidId].bidderName,bids[_bidId].bid,tenderCreatorAddress,BidderAddress);\r\n        // allocateList.push(_tenderId);\r\n        tenders[_tenderId].allocateBidId = _bidId;\r\n        bids[_bidId].allocateTenderId = _tenderId;\r\n        for(uint i=1;i<=bidCount;i++)\r\n        {\r\n            if(bids[i].tenderId==_tenderId && bids[i].allocateTenderId==999)\r\n            {\r\n                bids[i].allocateTenderId=0;\r\n            }\r\n        }\r\n    }\r\n}",
  "sourcePath": "C:\\Users\\hp\\Desktop\\development\\TenderApplication\\truffle\\contracts\\TenderAuction.sol",
  "compiler": {
    "name": "solc",
    "version": "0.8.19+commit.7dd6d404.Emscripten.clang"
  },
  "schemaVersion": "3.4.13",
  "updatedAt": "2023-04-15T14:24:19.091Z",
  "networkType": "ethereum",
  "devdoc": {
    "kind": "dev",
    "methods": {},
    "version": 1
  },
  "userdoc": {
    "kind": "user",
    "methods": {},
    "version": 1
  }
}